:020000040000FA
:040000008A117F2DB5
:040004000034003490
:08000800F700030EF8000408E4
:10001000F9000A08FE007608FA00FB0A8A11831329
:100020000408F008031D70088400831203130C1CDD
:1000300091280C100030840A800000088403003AE4
:10004000031923287328831203130508840A8000E8
:100050001030840A80008A1163238A110008840307
:10006000003A03193A282030840A80008A11B62108
:100070008A1140282A30840A80008A11B6218A1108
:100080000030840A80008A1119258A118030840A80
:1000900080008A1164268A1100088403003A03193B
:1000A0006328831203172508003A03195828622889
:1000B000013083120317A5008A11DC248A118A11EA
:1000C000F1238A117328831203172508003A0319B4
:1000D0007328003083120317A5008A119F248A1108
:1000E0008A11F1238A110530840A80003730840A8E
:1000F00080000030840A80008A11A0218A118A11B0
:10010000AC218A110030840A80008A1119258A11D5
:100110001030840A80008A11D7218A118A116F2237
:100120008A11FB017A08F6007E088A0079088400AB
:0A013000780E8300F70E770E090029
:06013A0083120317A5016A
:100140000730840A8000831603130108840A8000A4
:100150008A116A238A11000884038316031381001D
:100160000230840A8000831603131808840A800072
:100170008A116A238A1100088403831603139800E6
:100180000330840A8000831603131B08840A80004E
:100190008A116A238A1100088403831603139B00C3
:1001A0001930840A80000008840383160313990021
:1001B0000030840A800000088403831603139A0029
:1001C0000130840A80000630840A80000530840AE9
:1001D00080000430840A8000831203131008840A0C
:1001E00080008A116A238A118A116A238A118A116E
:1001F000A5238A118A11A5238A110008840383127A
:10020000031390000030840A8000831603130C0847
:10021000840A80008A116A238A11000884038316E5
:1002200003138C000630840A8000831203130B082A
:10023000840A80008A116A238A11000884038312C9
:1002400003138B000030840A80008A1119258A115B
:100250000030840A8000FF30840A80000230840A63
:1002600080008A11D7218A118A11A0218A110030B9
:10027000840A800000088403003A031940294629B3
:100280008A119F248A118A11F1238A118A11E0238D
:100290008A110030840A8000831203131008840A34
:1002A00080008A11A5238A11000884038312031396
:1002B00090000030840A8000000884038312031336
:1002C0008F000030840A8000000884038312031327
:1002D0008E000730840A8000831203130B08840AFF
:1002E00080008A116A238A11000884038312031391
:1002F0008B0000088403831203138F007F30840A6D
:10030000800000088403831203138E000030840AE7
:100310008000B030840A80008A11AC218A1100303C
:10032000840A8000831203131008840A80008A1153
:100330006A238A11000884038312031390009F2903
:100340000008840383120317A00003010007A00321
:10035000031DA62980000800000884030007840309
:10036000840A800008008009800A080000088403CD
:10037000831203130C1EBA298312031399008312EC
:1003800003130C1EC129080083120317A2010008E1
:100390008403A10000088403A0002108A002031C1C
:1003A000D329A20ACE292007840A800008008312DC
:1003B0000317A20100088403A10000088403A00021
:1003C0002108A002031CE629A20AE1292208840AC6
:1003D00080000800831203138C1EEC298312031380
:1003E0001A08840A8000080000088403000601300F
:1003F000031D00308403840A800008008313FB0877
:100400000319102A0408F100760884000008840308
:10041000F3000408F60071088400F10173081D2A36
:100420000408F0007608840000088403F200040841
:10043000F60070088400F00172088313F4000408C9
:10044000F0000008740284000008F20070088400C4
:10045000F001720880007408502AB321FE2983132A
:10046000FB080319412A0408F100760884000008FB
:100470008403F3000408F60071088400F101730896
:100480004E2A0408F0007608840000088403F20075
:100490000408F60070088400F00172088313080055
:1004A0008313FB080319612AF3000408F10076089E
:1004B00084007308F60A840A800071088400F10140
:1004C0006D2AF2000408F000760884007208F60A2B
:0E04D000840A800070088400F0018313080085
:0204DE00040810
:1004E0008A1150228A110F30840A80000030840A59
:1004F00080008A11FE218A110130840A80008A114D
:10050000FE218A110730840A80008A1100248A1192
:100510000F30840A80000030840A80008A11FE2196
:100520008A110130840A80008A11FE218A11083064
:10053000840A80008A1100248A110F30840A800006
:100540000030840A80008A11FE218A110130840A59
:1005500080008A11FE218A110930840A80008A11E4
:1005600000248A110F30840A80000030840A800041
:100570008A11FE218A110130840A80008A11FE212D
:100580008A110B30840A80008A1100248A110F30EE
:10059000840A80000030840A80008A11FE218A11BA
:1005A0000130840A80008A11FE218A110C30840AED
:1005B00080008A1100248A110F30840A80000030E4
:1005C000840A80008A11FE218A110130840A800089
:1005D0008A11FE218A110D30840A80008A110024BC
:1005E0008A110F30840A80000030840A80008A114A
:1005F000FE218A110130840A80008A11FE218A11AD
:100600000F30840A80008A1100248A110F30840A76
:1006100080000030840A80008A11FE218A11013096
:10062000840A80008A11FE218A111030840A800019
:100630008A1100248A110F30840A80000030840A55
:1006400080008A11FE218A110130840A80008A11FB
:10065000FE218A111130840A80008A1100248A1137
:0E0660008A112F228A1184008403840308006B
:02066E00800802
:1006700003193C2B80013D2B001408000008840363
:10068000003A0319462B013080000800000884035B
:10069000003A03194F2B0130840A80000800003013
:1006A000840A800008008A11A0290008840300063B
:1006B0008403840A80000800000884030004840383
:1006C000840A800008000008840300058403840A6B
:1006D000800008000008840383120317A0000008AC
:1006E0008403003A031D772B20080138A22B013A1E
:1006F000031D7D2B20080238A22B013A023A031D6C
:10070000842B20080438A22B023A033A031D8B2BBA
:1007100020080838A22B033A043A031D922B200824
:100720001038A22B043A053A031D992B20082038D3
:10073000A22B053A063A031DA02B20084038A22B15
:1007400020088038840A800008000008840383128F
:100750000317A00000088403003A031DB22B2008F1
:10076000FE39DD2B013A031DB82B2008FD39DD2BA6
:10077000013A023A031DBF2B2008FB39DD2B023A58
:10078000033A031DC62B2008F739DD2B033A043A40
:10079000031DCD2B2008EF39DD2B043A053A031D4C
:1007A000D42B2008DF39DD2B053A063A031DDB2B5D
:1007B0002008BF39DD2B20087F39840A800008001B
:1007C000831203130508840A80001030840A800015
:1007D0008A1163238A1100088403003A0319080070
:0207E000E02B0C
:0E07E2008A114A248A110030840A80008A118C
:0607F000D6258A11080065
:100800001B30840A80008A11B6218A115B30840A69
:1008100080008A11B6218A118A1122268A113B3062
:10082000840A80008A11B6218A118A1122268A112F
:100830004830840A80008A11B6218A110008840396
:1008400083120317A300003A0319332C83120317F2
:10085000A400DB30840A80008A11B6218A11831239
:100860000317A40B292C8312031723088002000806
:100870008403003A0319492C83120317A400B030F3
:10088000840A80008A11B6218A1183120317A40BEF
:100890003F2C08001B30840A80008A11B6218A117F
:1008A0005B30840A80008A11B6218A113230840AB2
:1008B00080008A11B6218A114A30840A80008A1188
:1008C000B6218A11831203171930A400831203176B
:1008D0000130A3000A30831203130C1E6D2C831207
:1008E00003139900831203130C1E742C8312031735
:1008F000A40B6B2CA30B6B2C08001B30840A80000C
:100900008A11B6218A115B30840A80008A11B621CF
:100910008A118A1122268A113B30840A80008A11AA
:10092000B6218A118A1122268A114830840A800051
:0E0930008A11B6218A118A11B6218A11080097
:02093E001B306C
:10094000840A80008A11B6218A115B30840A8000F3
:100950008A11B6218A113030840A80008A11B621AA
:100960008A113B30840A80008A11B6218A11333003
:10097000840A80008A11B6218A113230840A8000EC
:100980008A11B6218A113B30840A80008A11B6216F
:100990008A113430840A80008A11B6218A113030DD
:1009A000840A80008A11B6218A116D30840A800081
:1009B0008A11B6218A1108001B30840A80008A112E
:1009C000B6218A115B30840A80008A11B6218A110F
:1009D0003030840A80008A11B6218A113B30840AA3
:1009E00080008A11B6218A113430840A80008A116D
:1009F000B6218A113730840A80008A11B6218A1103
:100A00003B30840A80008A11B6218A113330840A6F
:100A100080008A11B6218A113430840A80008A113C
:100A2000B6218A116D30840A80008A11B6218A119C
:020A30000800BC
:0E0A3200831603131F179F121F168312031340
:100A40009F1000088403043A031D2E2D8312031700
:100A50001E168312031311309F00592D043A033AD6
:100A6000031D3A2D831203179E15831203130D30B5
:100A70009F00592D033A023A031D462D8312031796
:100A80001E158312031309309F00592D023A013AB3
:100A9000031D522D831203179E1483120313053076
:100AA0009F00592D831203171E1483120313013064
:100AB0009F00000000000000000000000000000097
:100AC0000000000000000000000000000000000026
:100AD00000000000000000000000000000009F1463
:100AE0009F18702D1E08840A8000080083120313CB
:0E0AF0009F149F18792D1E08840A80000800AC
:020AFE0083165D
:100B000003138113831603139512151615119510EF
:100B10001510831603131812831203138312031381
:100B20001812181698178316031398161813181509
:100B3000831603139B151B16831203179F01831241
:100B400003179E01831603138C120C1283120317D2
:100B50001E149E141E128316031305148514051506
:100B600083160313071483120317991283160313B2
:100B70001F139F161F1283160313FF3092000B12D0
:100B80008B018316031396018312031796018316B4
:100B900003138C01831603138D01FB019F30840026
:0C0BA0001F30F600F00183138A119D281D
:040BAC0004088A119E
:100BB00050228A110030840A80008A11FE218A1195
:100BC0000330840A80008A11C4218A11B030840A5B
:100BD00080008A11AC218A110030840A80008A11B9
:100BE000FE218A115130840A80008A11C4218A11A1
:100BF0000030840A80008A11FE218A111A30840A8A
:100C000080008A11C4218A118A117D248A11F8304A
:100C1000840A80008A11AC218A110030840A800085
:100C20008A11FE218A1100088403003A03191D2E3F
:100C30008A112F228A11D62D1D2E8A112F228A1158
:040C40000800212E59
:0C0C44000008840383120317A600840A32
:100C500080006430840A80008A11D7218A1100083C
:100C60008403303E840A80008A11B6218A118312DF
:100C700003172608840A80006430840A80008A11E1
:100C8000C4218A110A30840A80008A11D7218A116E
:100C900000088403303E840A80008A11B6218A113C
:100CA000831203172608840A80000A30840A800011
:100CB0008A11C4218A1100088403303E840A80000E
:080CC0008A11B6218A11080017
:080CC8000008840383120317E6
:100CD000A0000008840320020319702E0318742E4C
:100CE0000130840A800008000030840A8000080077
:100CF0000008840383120317A100A11B932E000890
:100D00008403A000A01F882E0030840A8000080001
:100D1000210203188F2E0130840A80000800003061
:100D2000840A8000080000088403A000A01B882E0D
:080D30000130840A8000080074
:080D38000008840A80000D3060
:100D4000840A80008A11B6218A110A30840A800040
:100D50008A11B6218A115530840A80008A11B62181
:100D60008A118A1122268A1108004030840A8000E4
:100D70008A11B6218A110408840A80008A11222669
:040D80008A110800CC
:02400E00C630BA
:00000001FF
